:100000000C9446000C9465000C9465000C946500FB
:100010000C9465000C9465000C9465000C946500CC
:100020000C9465000C9465000C9465000C946500BC
:100030000C9465000C9492000C9465000C9465007F
:100040000C9465000C9465000C9465000C9465009C
:100050000C9465000C9465000C9465000C9465008C
:100060000C9465000C9465000C9465000C9465007C
:100070000C9465000C9465000C9465000C9465006C
:100080000C9465000C9465000C94650011241FBE4F
:10009000CFEFD0E4DEBFCDBF11E0A0E0B1E0E2EEF3
:1000A000F6E000E00BBF02C007900D92AC34B10740
:1000B000D9F711E0ACE4B1E001C01D92AB35B10756
:1000C000E1F70E94DE010C946F030C9400008BE0BA
:1000D000809381008DE790E0909389008093880061
:1000E00082E080936F0010928500109284008091CE
:1000F000480190914901A0914A01B0914B01809330
:100100004C0190934D01A0934E01B0934F018FB7D6
:1001100080688FBF089510928100089581E08093D8
:10012000500108951F920F920FB60F9211240BB633
:100130000F922F933F934F935F936F937F938F9380
:100140009F93AF93BF93EF93FF9380914C01909156
:100150004D01A0914E01B0914F010197A109B10944
:1001600080934C0190934D01A0934E01B0934F01A9
:10017000892B8A2B8B2B91F40E948E008091480151
:1001800090914901A0914A01B0914B0180934C019B
:1001900090934D01A0934E01B0934F01FF91EF91C9
:1001A000BF91AF919F918F917F916F915F914F918F
:1001B0003F912F910F900BBE0F900FBE0F901F908D
:1001C0001895609348017093490180934A01909378
:1001D0004B0160934C0170934D0180934E019093BD
:1001E0004F010895CF92DF92EF92FF926B017C0155
:1001F0002091520130915301409154015091550189
:100200000E94F601882309F458C020E030E0A901DB
:10021000C701B6010E94F601811106C0E1E9F0E0D4
:1002200080818870808305C0E1E9F0E0808183608F
:10023000808328E539E344E75FE3C701B6010E9404
:10024000F60188233CF48FEF9FEF90939900809301
:10025000980027C020E034E244EF56E4C701B6011D
:100260000E94080318162CF410929900109298001E
:1002700018C020E030E040E053E4C701B6010E941E
:100280000C039B01AC0160E074E284EF9AE40E94ED
:10029000FA010E94620261507109709399006093A3
:1002A00098001092950010929400C0925201D09242
:1002B0005301E0925401F0925501FF90EF90DF90CE
:1002C000CF90089580E4809390008BE0809391001C
:1002D00060E070E0CB010E94F2000895109290005F
:1002E00010929100089580B18095817080935A0199
:1002F00020915601309157012130310561F020F0F5
:100300002230310599F029C082E090E090935701A6
:100310008093560122C0809151018231F1F482E034
:1003200090E0909357018093560117C0882379F08D
:100330008091580181110BC080915901811107C032
:1003400081E090E0909357018093560106C082E0CF
:1003500090E09093570180935601809156019091BF
:1003600057018130910559F018F00297F9F008957E
:1003700082E090E090935701809356010895E091B8
:100380005101E231D0F4F0E0EE0FFF1FEE0FFF1F3E
:10039000E050FF4F60817181828193810E94F20061
:1003A000809151018F5F80935101089560E070E06A
:1003B000CB010E94F20010925101089511B88FEF05
:1003C00082B984B915B80E94620166E270E080E0EB
:1003D00090E00E94E1000E9467000E9473018091FA
:1003E00050018823E1F310925001F7CF9CD008F41C
:1003F00081E008950CD0D2C0CAD040F0C1D030F016
:1004000021F45F3F19F0B3C05111FCC0B6C0D7D082
:1004100098F39923C9F35523B1F3951B550BBB27CB
:10042000AA2762177307840738F09F5F5F4F220F78
:10043000331F441FAA1FA9F333D00E2E3AF0E0E871
:1004400030D091505040E695001CCAF729D0FE2FBD
:1004500027D0660F771F881FBB1F2617370748074F
:10046000AB07B0E809F0BB0B802DBF01FF27935805
:100470005F4F2AF09E3F510568F079C0C3C05F3FCF
:10048000ECF3983EDCF3869577956795B795F795ED
:100490009F5FC9F7880F911D9695879597F90895E5
:1004A000E1E0660F771F881FBB1F62177307840781
:1004B000BA0720F0621B730B840BBA0BEE1F88F790
:1004C000E095089504D06894B1119CC008957FD040
:1004D00088F09F5790F0B92F9927B751A0F0D1F02D
:1004E000660F771F881F991F1AF0BA95C9F712C0B7
:1004F000B13081F086D0B1E0089583C0672F782FA6
:100500008827B85F39F0B93FCCF386957795679522
:10051000B395D9F73EF490958095709561957F4F8E
:100520008F4F9F4F0895990F0008550FAA0BE0E8D1
:10053000FEEF16161706E807F907C0F012161306A5
:10054000E407F50798F0621B730B840B950B39F4E5
:100550000A2661F0232B242B252B21F408950A264B
:1005600009F4A140A6958FEF811D811D089597F98B
:100570009F6780E870E060E008959FEF80EC089549
:1005800000240A9416161706180609060895002472
:100590000A9412161306140605060895092E0394EC
:1005A000000C11F4882352F0BB0F40F4BF2B11F460
:1005B00060FF04C06F5F7F4F8F4F9F4F089557FDBF
:1005C0009058440F551F59F05F3F71F04795880FC1
:1005D00097FB991F61F09F3F79F087950895121658
:1005E00013061406551FF2CF4695F1DF08C0161604
:1005F00017061806991FF1CF8695710561050894B5
:100600000895E894BB2766277727CB0197F90895CB
:100610008ADF08F48FEF08950BD0C0CFB1DF28F048
:10062000B6DF18F0952309F0A2CFA7CF1124EACFA7
:10063000C6DFA0F3959FD1F3950F50E0551F629F41
:10064000F001729FBB27F00DB11D639FAA27F00D2B
:10065000B11DAA1F649F6627B00DA11D661F829F52
:100660002227B00DA11D621F739FB00DA11D621F37
:10067000839FA00D611D221F749F3327A00D611D54
:10068000231F849F600D211D822F762F6A2F112436
:100690009F5750408AF0E1F088234AF0EE0FFF1F89
:1006A000BB1F661F771F881F91505040A9F79E3FC0
:1006B000510570F05CCFA6CF5F3FECF3983EDCF3C2
:1006C000869577956795B795F795E7959F5FC1F7FD
:1006D000FE2B880F911D9695879597F90895F894AC
:0206E000FFCF4A
:1006E200CD84234500000000CD8423450000000096
:1006F2009A89374500000000CD044E4500000000F5
:10070200CD84234500000000CD044E4500000000CA
:100712009A89374500000000CD842345000000007F
:0C072200CD842345000000000100000011
:00000001FF
